:020000040000FA
:0400000000001028C4
:040004000034003490
:08000800FD000308FE000A08D8
:10001000FF007F088A007E088300FD0E7D0E090028
:1000200083120313900110178F0100001014831620
:100030000313880105140614831603170814091204
:100040008312031301309F0088012430840083163B
:1000500003139F0180208312031306182B2880208E
:1000600006182B288312031310100F0820300310DA
:100070000F02031C5A28403003100F02031C602893
:10008000603003100F02031C6628803003100F023B
:10009000031C6C28A03003100F02031C7228C03010
:1000A00003100F02031C7828880188160817881788
:1000B00091207E28880108148814081591207E2834
:1000C000880188140815881591207E288801081554
:1000D0008815081691207E2888018815081688162C
:1000E00091207E28880108168816081791207E28FE
:1000F000880188160817881791207E2810142B284D
:1001000083120313FF30A000A1000330A200A00B54
:100110008728FF30A000A10B8728A100A20B872809
:10012000080083120313FF30A000F030A200A00BE0
:0C0130009728FF30A000A20B97280800C1
:02400E00E428A4
:02401000FF3E71
:0A42000005000400030002000100A5
:00000001FF
