:020000040000FA
:0400000000001028C4
:040004000034003490
:08000800FD000308FE000A08D8
:10001000FF007F088A007E088300FD0E7D0E090028
:1000200083120313900110178F018E01000010142A
:100030008316031388010514061483160317081486
:1000400009128312031301309F00880124308400B9
:10005000831603139F0185208312031306182C288F
:10006000852006182C288312031310100E08203048
:1000700003100E02031C5B28403003100E02031C09
:100080006128603003100E02031C672880300310C3
:100090000E02031C6D28A03003100E02031C7328EF
:1000A000C03003100E02031C792888018816081737
:1000B000881796207F288801081488140815962030
:1000C0007F28880188140815881596207F288801C4
:1000D00008158815081696207F28880188150816A7
:1000E000881696207F2888010816881608179620FB
:1000F0007F28880188160817881796207F281014F3
:1001000085208520852088012C2883120313FF3049
:10011000A000A1000330A200A00B8C28FF30A0009B
:10012000A10B8C28A100A20B8C28080083120313BA
:10013000FF30A000F030A200A00B9C28FF30A000F0
:06014000A20B9C28080040
:02400E00E428A4
:02401000FF3E71
:0A42000005000400030002000100A5
:00000001FF
