:020000040000FA
:0400000000001028C4
:040004000034003490
:08000800FD000308FE000A08D8
:10001000FF007F088A007E088300FD0E7D0E090028
:100020008316031388010514061483160317081496
:1000300009128312031301309F00880124308400C9
:10004000831603139F01C120831203139F149F186B
:100050002728831203131E08203003101E02031CDE
:100060005028403003101E02031C56286030031035
:100070001E02031C5C28803003101E02031C622831
:10008000A03003101E02031C6828C03003101E029B
:10009000031C6E288801881608178817D220742838
:1000A0008801081488140815D2207428880188143F
:1000B00008158815D2207428880108158815081697
:1000C000D22074288801881508168816D220742832
:1000D0008801081688160817D22074288801881607
:1000E00008178817D220742806182428C12006185B
:1000F000242803112C300406031D7F288D280808AE
:1001000080008801C12000088800C1208801C1202A
:1001100000088800C120840A24288801C120FF30FB
:100120008800C1208801C120FF308800C1208801DB
:10013000C120FF308800C1202430840000088800DE
:10014000C1208801C12003112B3004060319AA28FD
:10015000840A9E28243084008801C120FF30880052
:10016000C1208801C120FF308800C1208801C12042
:10017000FF308800C1208801C120FF308800C120E5
:10018000242883120313FF30A000A1000330A20033
:10019000A00BC828FF30A000A10BC828A100A20B0B
:1001A000C828080083120313FF30A000F030A2001B
:0E01B000A00BD828FF30A000A20BD828080012
:02400E00E428A4
:02401000FF3E71
:0A42000005000400030002000100A5
:00000001FF
