:020000040000FA
:0400000000001028C4
:040004000034003490
:08000800FD000308FE000A08D8
:10001000FF007F088A007E088300FD0E7D0E090028
:1000200083120313900110178F018E01000010142A
:100030008316031388010514061483160317081486
:1000400009128312031301309F00880124308400B9
:10005000831603139F01DF208312031306182C2835
:10006000DF2006182C288312031310100E082030EE
:1000700003100E02031C5B28403003100E02031C09
:100080006128603003100E02031C672880300310C3
:100090000E02031C6D28A03003100E02031C7328EF
:1000A000C03003100E02031C792888018816081737
:1000B0008817F0207F288801081488140815F0207C
:1000C0007F288801881408158815F0207F2888016A
:1000D000081588150816F0207F288801881508164D
:1000E0008816F0207F288801081688160817F02047
:1000F0007F288801881608178817F0207F28101499
:10010000DF20DF20DF20880186282C2883120313BC
:100110009F149F188928831203131E082030031090
:100120001E02031CB228403003101E02031CB82814
:10013000603003101E02031CBE28803003101E0214
:10014000031CC428A03003101E02031CCA28C030A0
:1001500003101E02031CD028880188160817881770
:10016000F020D6288801081488140815F020D62815
:100170008801881408158815F020D62888010815EC
:1001800088150816F020D6288801881508168816C4
:10019000F020D6288801081688160817F020D628DF
:1001A0008801881608178817F020D6280618862890
:1001B000DF2006182C2803112C300406031D83129F
:1001C0000313FF30A000A1000330A200A00BE6281B
:1001D000FF30A000A10BE628A100A20BE628080032
:1001E00083120313FF30A000F030A200A00BF6280A
:0A01F000FF30A000A20BF628080063
:02400E00E428A4
:02401000FF3E71
:0A42000005000400030002000100A5
:00000001FF
