:020000040000FA
:0400000000001028C4
:040004000034003490
:08000800FD000308FE000A08D8
:10001000FF007F088A007E088300FD0E7D0E090028
:1000200083120313900110178F0100001014831620
:100030000313880106148312031310140912831288
:10004000031301309F0088012430840083160313BA
:100050009F01C720831203139F148F182D2883122A
:1000600003130F08203003100F02031C56284030E2
:1000700003100F02031C5C28603003100F02031CE6
:100080006228803003100F02031C6828A030031080
:100090000F02031C6E28C03003100F02031C7428CB
:1000A0008801881608178817D8207A28880108142C
:1000B00088140815D8207A2888018814081588150E
:1000C000D8207A288801081588150816D8207A289B
:1000D0008801881508168816D8207A2888010816FD
:1000E00088160817D8207A288801881608178817D4
:1000F000D8207A2806182A28C72006182A2803118B
:100100002C300406031D85289328080880008801E8
:10011000C72000088800C7208801C7200008880081
:10012000C720840A2A288801C720FF308800C720FA
:100130008801C720FF308800C7208801C720FF3012
:100140008800C7202430840000088800C720880168
:10015000C72003112B3004060319B028840AA428F1
:10016000243084008801C720FF308800C720880120
:10017000C720FF308800C7208801C720FF308800D3
:10018000C7208801C720FF308800C7202A28831293
:100190000313FF30A000A1000330A200A00BCE2863
:1001A000FF30A000A10BCE28A100A20BCE28080092
:1001B00083120313FF30A000F030A200A00BDE2852
:0A01C000FF30A000A20BDE280800AB
:02400E00E428A4
:02401000FF3E71
:0A42000005000400030002000100A5
:00000001FF
